S01200004D792050726F6A6563742E7372656355
S113000050050020FD000000F9000000F900000088
S113001000000000000000000000000000000000DC
S1130020000000000000000000000000F9000000D3
S11300300000000000000000F9000000F9000000CA
S1130040F9000000F9000000F9000000F9000000C8
S1130050F9000000F9000000F900000000000000B1
S1130060F9000000F9000000F9000000F9000000A8
S1130070F9000000D5130000F9000000510F000042
S1130080F90000002D100000F900000010B5064C26
S11300902378002B07D1054B002B02D0044800E045
S11300A000BF0123237010BD0000002000000000E9
S11300B07C2E0000084B10B5002B03D007490848DC
S11300C000E000BF07480368002B00D110BD064BB9
S11300D0002BFBD09847F9E7000000000400002043
S11300E07C2E00007C2E00000000000010B5014BA7
S11300F0984710BD4D030000FEE7000010B5264AE6
S1130100264B9A4211D01A00254B9A420DD2254A09
S113011003339B1A9B0801339B0000221F481E498E
S11301208C58845004329A42FAD11F4A1F4B9A4287
S11301300AD2D3431D495B1803218B4304339B1814
S1130140002102C29342FCD1194AFF21194B8B436F
S11301509360FD3990235B00174AD150174B9A7B6B
S11301602E318A4320210A439A739A7B0C218A43B5
S113017008210A439A739A7B03218A4302210A4382
S11301809A730F4A536880210B4353600D4B984771
S11301900D4B9847FEE7C0467C2E0000000000206F
S11301A00000002004000020000000205001002076
S11301B000ED00E000000000007000410048004134
S11301C000400041712C0000A5140000F0B585B07A
S11301D01B4A116A80235B000B431362194A1A4BB2
S11301E05A801A4C1A4E002302931A4B019301258C
S11301F000950023220018493000184FB847221DEB
S1130200102300213000164CA0470422C023DB0534
S11302105A601449144B8B62C0231B068B62422321
S1130220CA5CAA4301200243D2B2CA5431228B5C75
S11302300F24A3430343DBB28B5405B0F0BDC04687
S11302400004004013400000000C00401C0000208B
S11302505C000020AC000020002000422D040000BF
S1130260D5040000004400410400004030B50E4BAA
S11302704A22995C0125A94301242143C9B2995416
S11302803520195C3B3A91430C3A114319544B21E4
S11302905A5CAA432243D2B25A541A5C3C390A40EB
S11302A021310A431A5430BD00440041044A136A00
S11302B010210B431362034A034B5A807047C04614
S11302C00004004010400000000C004010B5054B35
S11302D09847002204490548054B9847054B984721
S11302E010BDC046AD02000000100042C400002052
S11302F0610B00006D02000010B50248024B9847E4
S113030010BDC04610E000E00D080000044A116A68
S11303108023DB000B431362024A034B5A8070476D
S11303200004004016400000000C004010B5034BD0
S1130330984703490348044B984710BD0D03000038
S11303400028004288000020BD07000010B50D4BB6
S113035098470D4B98470D4B98470D4B98470D4ABE
S1130360136A40210B4313620B4A0C4B5A800C4B0B
S1130370984702000B490C480C4B98470C4B984784
S113038010BDC046B90F0000CD010000CD02000031
S1130390F90200000004004012400000000C00407C
S11303A0AF13000000180042D000002051090000E3
S11303B02D03000010B58369002B00D0984710BDB1
S11303C010B5C369002B00D0984710BDF0B583B0B9
S11303D005000E00036A5B5C5C00E418E400836AB9
S11303E09C466444271D01926B46197938000D4BD5
S11303F0984728000C4B9847012807D9019B190AF4
S11304003800084B9847A38A0133A382A38A013397
S1130410A3822368002B02D031002800984703B040
S1130420F0BDC046110D0000E90E0000F0B5D6463F
S113043000B582B00500019116001C0008AB1F78BE
S1130440002835D0002935D0002A35D00020002FCF
S113045002D00998431E98413F221849184B9A46E6
S11304609847621CFB0FD017BA425841C0B24022D1
S11304701249D0470023FF22F2540133DBB29C42DD
S1130480FAD22E622423EC540133EF54099BAB625D
S1130490019928000B4B9847002805D10A4BAB6003
S11304A00A4B2B600A4B6B6002B004BC9246F0BD51
S11304B00020D1E70020CFE70020CDE7B82C0000D2
S11304C0050C00007D0E0000CD030000B503000004
S11304D0C1030000F0B583B007000C000092019343
S11304E000281BD0002A1BD01800431E9841234E1D
S11304F066223100224DA8472423FB5C0020A3423E
S11305004041C0B267223100A847396A0B5DFF2B16
S11305102AD1DB3BF85C0026002307E00020E6E755
S11305200020E4E70133DBB2834205D8CA5CFF2A2A
S1130530F8D00136F6B2F5E72523FB5CB34216D3B7
S113054073009B19DD00BB6A58190430019A0099A5
S11305500C4B984700280DD13B6A1E55BB6A5B19AA
S113056000229A8203B0F0BD0D204042FAE71C201D
S11305704042F7E70D204042F4E7C046B82C0000A3
S1130580050C0000750C0000F8B506000C000B4DBE
S1130590431E9841C0B283222900094FB84724233F
S11305A0F35C0020A3424041C0B284222900B84732
S11305B021003000034B98470020F8BDB82C000000
S11305C0050C0000DD0E0000F0B583B007000191BA
S11305D015001E00431E9841C0B29C221649174CB8
S11305E0A0472423FB5C0020019A93424041C0B2FF
S11305F09D221149A047012D19D0002D04D0022DB0
S113060017D00D20404210E03B6A019A9A5C5300D7
S11306109B18DB00BA6A9E50731E9E41F3B22A00F7
S113062001993800064CA047002003B0F0BDBE611C
S1130630F2E7FE61F0E7C046B82C0000050C0000AC
S1130640130F0000F0B5CE46474680B585B00500CF
S11306500C0017009846002852D0002A52D01800E7
S1130660431E9841BC222A492A4EB0472423EB5CFE
S11306700020A3424041C0B2BD222549B047280012
S1130680254B984701004046244B9847484248412F
S1130690C0B2BF221E49B0472B6A1A5D53009B1893
S11306A0DB00AA6A9146994403A81D4B98474B4620
S11306B00433019318001B4B9847040003A81A4BFA
S11306C09847002C20D04346002B1FD03D00013C0E
S11306D03F190024154E0134A4B229000198B047F3
S11306E0BD4202D00135A045F5D14B469B8A1B1B68
S11306F04A469382200005B00CBC90469946F0BD52
S11307000020AFE70020ADE70024EEE70024ECE78B
S1130710B82C0000050C0000E90E00003917000099
S113072059070000510D000067070000C90C0000C4
S113073010B50400431E9841C0B2D6220349044BAD
S113074098472000034B9847002010BDB82C0000A8
S1130750050C0000010F0000EFF31083036072B674
S1130760BFF35F8F7047BFF35F8F036883F3108815
S1130770704710B508384368002B00D0984710BD67
S113078010B5CB00C3189C69002C0AD0013C9C61B5
S1130790002C07D10300083B1B68002B01D008384C
S11307A0984710BD5A69941C5C6153880A0019006B
S11307B0014B9847F5E7C046C510000070B5050029
S11307C00C00002816D00800431E9841C0B23822FD
S11307D009490A4B9847280008302100084B9847DC
S11307E0002806D1074BAB60074BEB600023EB619D
S11307F02B6270BD0020EAE7D42C0000050C000039
S113080071100000810700007307000010B5024B4F
S11308101860024B984710BD300000207112000090
S113082070B506000C00150000280DD00800431E0A
S11308309841C0B234220549054B984733682A00D1
S113084021003000984770BD0020F3E7F02C000031
S1130850050C0000F8B5CE46474680B581460368CE
S11308609C46002B05D08E681C0000250127BF1A6A
S11308700DE0124B984718E0FB18A06880464344EB
S1130880B3420CD223682500002B0BD01C006368F4
S11308909342F1D8A068804643449B1AF0E7A445EC
S11308A007D02C002000064B98470CBC9046994674
S11308B0F8BD4846014B9847F7E7C046310C0000A5
S11308C05D0C0000F0B5C64600B582B0070044696F
S11308D00369013398460361037EDB0711D4037E69
S11308E09B070ED4002C10D0434662689B1AA26862
S11308F093420AD314239C46844463460193124EC4
S113090014E03B7E022213433B7602B004BC9046C3
S1130910F0BD7D69E36820009847002DF5D02C00D8
S113092043466A689B1AAA689342EED30198B0477B
S1130930237C012BEDD1434663604246210001989C
S1130940024B9847E5E7C046650C000055080000D7
S113095070B505000C00002811D00800431E984112
S1130960C0B23B220749084B984721002800074B97
S1130970984700232B61064B2B60002070BD00209C
S1130980EFE7C046042D0000050C000085120000AE
S1130990C508000010B50400431E9841C0B253229C
S11309A00749084B98472000074B9847002804D173
S11309B02000064B9847002010BD11204042FBE761
S11309C0042D0000050C0000A5130000991300007D
S11309D070B582B004000D00002824D00800431E26
S11309E09841C0B27A221E491E4B9847237E0122A9
S11309F01343237626001436290030001A4B9847F7
S1130A00002812D123696B60226929003000174B3A
S1130A109847237E012293432376237E00209B075D
S1130A200FD402B070BD0020DCE7237E0122934383
S1130A3023767E320A4900200A4B9847122040420E
S1130A40EFE701A80A4B9847237E022293432376BB
S1130A502000084B984701A8074B98470020E0E77F
S1130A60042D0000050C00000D0C000055080000CA
S1130A7059070000B513000067070000F8B5CE461B
S1130A80474680B504000F009046002826D0002970
S1130A9026D01000431E9841F1221249124B984768
S1130AA00834124D2000A8470028FBD00026104B24
S1130AB099460E4DB95D2000C8472000A84700287C
S1130AC0FBD001364645F5D30A4D2000A84700283F
S1130AD0FBD030000CBC90469946F8BD0020DBE703
S1130AE00020D9E71C2D0000050C0000F9110000BE
S1130AF0E911000003120000F8B5CE46474680B560
S1130B0004000F00904600281DD000291DD01000BD
S1130B10431E9841862252000D490E4B98470026E9
S1130B2008340D4D0D4B99462000A8470028FBD0F2
S1130B302000C847B85501364645F5D330000CBCF3
S1130B4090469946F8BD0020E4E70020E2E7C0465D
S1130B501C2D0000050C00000D120000F111000016
S1130B6070B505000C00002813D00800431E9841FE
S1130B70C0B234220849094B9847280008302100A4
S1130B80074B9847002803D1064B6B60064B2B603C
S1130B9070BD0020EDE7C0461C2D0000050C0000D0
S1130BA0A9110000F90A00007D0A000010B5040034
S1130BB0431E9841C0B253220449054B9847200074
S1130BC00830044B9847002010BDC0461C2D00007F
S1130BD0050C0000D511000070B504000D000028BC
S1130BE00AD00800431E9841C0B269220349044B4D
S1130BF098472C60002070BD0020F6E71C2D0000F3
S1130C00050C0000002800D100BE70470368002BCB
S1130C100AD08B420AD01B68002B03D09942FAD128
S1130C20012000E0002070470020FCE70120FAE7E3
S1130C3070B504000D00064B984701235840C0B21C
S1130C4039220449044B984723682B60256070BD02
S1130C500D0C0000382D0000050C000003680B602B
S1130C60016070470368002B01D01A680260180005
S1130C707047000070B504000E00150000280BD06A
S1130C80002918D00120002A07D128220C4900206D
S1130C900C4B98476B1E07E0002028220849094B9B
S1130CA098476B1E2B4208D163600023A360E36066
S1130CB02660002070BD0020EFE70D204042F9E7D8
S1130CC0582D0000050C000070B504000D0000282C
S1130CD015D00800431E9841C0B240220A490B4B6C
S1130CE09847A368E2689A420BD06268134022686E
S1130CF0D35C2B70A3680133A360002070BD002077
S1130D00EBE70A204042F9E7582D0000050C0000EB
S1130D1070B504000D00431E9841C0B251220A4927
S1130D200A4B98476368E26813402268D554E36825
S1130D306168A2689A1A8A4201D9591AA1600133DA
S1130D40E360002070BDC046582D0000050C000073
S1130D5010B50400431E9841C0B267220349044BF6
S1130D609847E068A368C01A10BDC046582D00001B
S1130D70050C00000020704770B504000D00394BCD
S1130D80C01842424241D0B294223749374B984767
S1130D90374B1A685201E023DB001A40354B59687F
S1130DA049011B68DB0E0B43FF210B401A43637E92
S1130DB0DB09FCD123789B0704D500232370637ED1
S1130DC0DB09FCD101232370637EDB09FCD122857E
S1130DD0EA00521B9200284B9B189A786270DA78CA
S1130DE0A2701A79E2701A7C2275DA8AA2841A8BAC
S1130DF0E284997E2A22A154DB88A380637EDB09E6
S1130E00FCD1EB005B1B9B001B4AD318DB682361FE
S1130E10637EDB09FCD1EB005B1B9B00164AD318F5
S1130E201B7A2372637EDB09FCD1EB005B1B9B0006
S1130E30114AD3185B8AA383637EDB09FCD1EB00E0
S1130E405B1B9B000C4AD3189B8A2384637EDB09BB
S1130E50FCD1EB005D1BAD00074B5D196B78237073
S1130E60002070BD00E0FFBD982D0000050C0000BF
S1130E7024608000206080007C2D000070B5050097
S1130E800C00431E9841C0B2D3220E490E4B984722
S1130E9020000E4B9847010020000D4B9847002876
S1130EA00FD16C610B4B1D600B4B80221202802111
S1130EB05A50BFF34F8FBFF36F8F0131FF315A5038
S1130EC01A6070BD982D0000050C0000750D00001F
S1130ED0790D00003400002000E100E0426913783D
S1130EE002210B43137070474269537EDB09FCD126
S1130EF090888006800F0338431E98410130704764
S1130F004269137B02210B431373537EDB09FCD12B
S1130F1070474169012A08D0022A0ED0002A03D161
S1130F20002B12D00123CB757047002B02D1043360
S1130F308B75F9E70423CB75F6E7002B02D1023356
S1130F408B75F1E70223CB75EEE701338B75EBE785
S1130F5010B5114B18684269117ED37D0B40D90737
S1130F600AD5012313768468537EDB09FCD1528BA6
S1130F7092B20021A04710BD990707D45B07FAD5A8
S1130F8004231376036800219847F4E702231376B9
S1130F90436800219847EEE73400002043B2002B59
S1130FA007DB1F2318401E3B834080225200014967
S1130FB08B50704700E100E010B5064B5A685A6048
S1130FC0054B9847054B9847054B98473F20054BE1
S1130FD0984710BD00400041ED10000019120000B8
S1130FE061120000CD100000C379DB09FCD1C37984
S1130FF0DB09FCD103789B0707D500230370C37971
S1131000DB09FCD1C379DB09FCD101230370C3796B
S1131010DB09FCD1C379DB09FCD183700122427066
S11310200370C379DB09FCD10020704710B50F4B66
S1131030186803699A79D20707D501229A7143681F
S1131040002B01D00021984710BD9A79920707D54B
S113105002229A710368002BF6D000219847F3E727
S11310609A795207F0D504229A71EDE738000020EE
S113107070B504000D00431E9841C0B28E220C4985
S11310800C4B984728000C4B984700280FD125613A
S11310900A4B1C600A4B8022920280215A50BFF3F3
S11310A04F8FBFF36F8F0131FF315A501A6070BDFB
S11310B0B02D0000050C0000E90F000038000020EE
S11310C000E100E00369998170470000C3070AD575
S11310D0054B802252009A60832252025A601A0001
S11310E05378DB09FCD17047000C0040064B1A7A98
S11310F0D2B21A725A7AD2B25A729A7AD2B29A7214
S1131100DA7AD2B2DA7270470004004010B50400F3
S11311101F4BC3189B0ADBB2022B04D01D4A1E4985
S113112000201E4B9847E369DB0718D40322E369C8
S11311301A42FCD123689B070BD5236802229343F0
S113114023600132E3691A42FCD10222E3691A42A4
S1131150FCD1052323600322E3691A42FCD1012256
S1131160E3691A42FCD10E4B23600322E3691A425D
S1131170FCD1C0239B0263600722E3691A42FCD1BD
S1131180084BA3810023A3733022A354002010BD75
S113119000F8FFBD3A020000C82D0000050C000055
S11311A004003140ADD8FFFF70B505000C00431EAC
S11311B09841C0B2B4220449044B98472C602000E3
S11311C0034B984770BDC046C82D0000050C0000B5
S11311D00D1100000268136802210B4313600131F2
S11311E0D3691942FCD17047036889B219857047E5
S11311F00368188DC0B270470368187E0123184035
S113120070470368187E8007C00F70470368187E14
S11312104007C00F704700000E4B1A6A196A0E4847
S11312200240890F89070D4801430A431A629A69EB
S113123002210A439A611A7F1D310A401A77190064
S11312400822CB681A42FCD0024A136A80210B435D
S113125013627047000800400000FF0F0203000003
S1131260024A936902218B4393617047000800404E
S1131270024B034A5A6005221A60704710E000E0EE
S1131280FFFFFF00F8B507000C003C4BCD18AD0A7A
S1131290EDB2002D51D09622520039490020394B2D
S11312A0984701267642FC60792235490120354B66
S11312B09847E37BDB09FCD123889B0704D50023F3
S11312C02380E37BDB09FCD101232380E37BDB095F
S11312D0FCD1B3009B199A002B4B9B185A8822808F
S11312E018792072DB8863810C231340082B26D0E5
S11312F0002B2ED1B3009B199B00234AD3189B8942
S113130023830023638301236373204B9C4231D0E6
S11313100D35EBB22A060ED41F221A400123934046
S11313201B4A80215350BFF34F8FBFF36F8F01319E
S1131330FF31535013600020F8BD0026B3E7B3001B
S11313409E19B600104B9E19F368A3610023E36154
S1131350D9E7042BD7D10C48B3009A19920082180C
S1131360127B2276002262769B199B00C3181B7A9B
S11313702375C8E7074B1F60CAE7C04600E8FFBDF6
S1131380F82D0000050C0000E42D000000180042B8
S113139000E100E03C000020C268138802210B43F6
S11313A013807047C36818888007C00F70470020F7
S11313B07047000010B5C068044B9C466044800A26
S11313C00D30C0B2024B984710BDC04600E8FFBDC7
S11313D09D0F000010B5064B1868C3689A7BD207AE
S11313E000D410BD01229A7303689847F9E7C046F8
S11313F03C0000200122014B1A707047400000207D
S113140010B50248024B984710BDC0465C0000204E
S11314103107000010B5044C04492000044B9847E0
S11314202000044B984710BDC4000020F4000020A5
S1131430D90B0000AD0B000070B5074C074B002220
S113144000212000064DA84700212000054B9847A5
S11314502000054B984770BD5C000020F513000088
S1131460C9050000890500003107000010B50849CE
S11314700A23CB60074B0B6101230B750431064C27
S11314802000064B98472000054B984710BDC046E6
S11314904000002001140000D0000020D109000009
S11314A095090000F8B51E4B98471E4B98471E4BF4
S11314B098471E481E4B98471E4B18680C221E491D
S11314C01E4B98471E4B98470FE000221D4B1E4EA3
S11314D0B047206061601D4E1D4B98473070154B1E
S11314E0186801223100154B98470827194E01232B
S11314F0194A00210D48B047184A1378002BFCD034
S1131500154B18788000164B9847164C2268636870
S1131510154DA84720606160013F002FE7D1D4E753
S1131520ED00000015140000391400005C000020D8
S113153031070000F40000200C2E000021080000F8
S11315406D1400000000A03FA11D00000801002050
S11315504517000045060000F1000020400000206F
S113156035290000000100208117000003460B43C9
S11315707FD4002243088B4274D303098B425FD388
S1131580030A8B4244D3030B8B4228D3030C8B42B4
S11315900DD3FF22090212BA030C8B4202D312129A
S11315A0090265D0030B8B4219D300E0090AC30B6F
S11315B08B4201D3CB03C01A5241830B8B4201D31C
S11315C08B03C01A5241430B8B4201D34B03C01A05
S11315D05241030B8B4201D30B03C01A5241C30A7D
S11315E08B4201D3CB02C01A5241830A8B4201D3EE
S11315F08B02C01A5241430A8B4201D34B02C01AD8
S11316005241030A8B4201D30B02C01A5241CDD27C
S1131610C3098B4201D3CB01C01A524183098B42C7
S113162001D38B01C01A524143098B4201D34B01B0
S1131630C01A524103098B4201D30B01C01A524113
S1131640C3088B4201D3CB00C01A524183088B429A
S113165001D38B00C01A524143088B4201D34B0083
S1131660C01A5241411A00D20146524110467047F5
S11316705DE0CA0F00D04942031000D340425340FA
S113168000229C4603098B422DD3030A8B4212D3BA
S1131690FC22890112BA030A8B420CD389019211EC
S11316A08B4208D3890192118B4204D389013AD029
S11316B0921100E08909C3098B4201D3CB01C01AFE
S11316C0524183098B4201D38B01C01A5241430911
S11316D08B4201D34B01C01A524103098B4201D3FF
S11316E00B01C01A5241C3088B4201D3CB00C01A6C
S11316F0524183088B4201D38B00C01A5241D9D284
S113170043088B4201D34B00C01A5241411A00D204
S11317100146634652415B10104601D34042002B00
S113172000D54942704763465B1000D3404201B57F
S1131730002000F005F802BD0029F8D016E7704734
S11317407047C04670B500220C4B04000D0001F038
S113175067F9002804D12000290001F0B7F870BD12
S1131760064B00222000290000F09AFD01F0AEF89B
S113177080231B069C466044F1E7C0460000E0411C
S1131780F8B54546DE4657464E460C03E0B54E00D6
S1131790C90F88460D00610A440F0C43C7001903A2
S11317A05800DB0F9B464B0A510F0B43760D400D3F
S11317B01900D200D84500D1AEE0351A002D00DC66
S11317C0F6E000280FD1134300D1DBE06B1E002BA1
S11317D000D037E1BA1A9742BF41641A7F42E41B32
S11317E00126170024E0C64B9E424DD080231B04E3
S11317F01943382D00DD07E11F2D00DD38E12020DD
S1131800431B9A460B0050468340994613004846B2
S1131810EB401843030050468240501E8241E94089
S11318201A43BA1A611A9742A441170064420C1B66
S1131830230262D56402650A002D00D1DFE028008E
S113184001F0F8F80300083B1F2B00DDD2E0202252
S11318503C00D21A9D40D4409F4025439E4200DD67
S1131860C4E09E1B731C1F2B00DDF1E02022380016
S11318702900D21AD840914097402C000143781E89
S11318808741DC4000260F437B0709D00F233B40F0
S1131890042B05D03B1DBB42BF417F42E4191F000E
S11318A023022CD5964B01369E4200D19AE0454640
S11318B0944BFF081C406007760564020743240B21
S11318C0760D00212403230B0C0D8F4A24051C43A1
S11318D01440330523435B00ED075B082B433800BA
S11318E019003CBC90469946A246AB46F8BD6446F6
S11318F0044300D111E2040067467B07C6D1454684
S11319006007FF080743E4087D4B9E4230D0240360
S11319107605240B760DD4E7331A9A46002B78DD2E
S1131920002831D076488642AED08020000401439E
S11319305346382B00DCE9E00A43511E8A4100215A
S1131940D219BA42BF4109197C4217000C1923026B
S1131950D3D56B4B01369E4200D13AE10120694B4D
S11319601C407B0807401F43E007074364088BE7DC
S113197023003B4300D1CBE1802212031443240310
S1131980240B9EE72E007FE70800104300D1B4E04B
S1131990581E002800D0DEE0BA18BA429B416418F1
S11319A05B42E418170001262302A6D50226D5E7D8
S11319B0002D6ED1701C4005400D012800DCF9E0BB
S11319C0B81A844687428041E51A40422D1A2802FB
S11319D000D489E0D71BBA4292411C1B5242A51A7B
S11319E0D84629E74546002400276AE7454CF61AFD
S11319F02C4049E73D002838854000272EE7380071
S1131A0001F018F820301DE70A43511E8A410021D5
S1131A1007E7002B00D0F3E0701C43055B0D012B9E
S1131A2000DCADE0364B984200D1D1E0BA18BA429E
S1131A30BF4164187F42E419E7075208174364085A
S1131A40060021E72E48854200D193E01D00D0E630
S1131A5029001F3EF140202B00D18DE04022D31AF3
S1131A609D402F437D1EAF4100240F43002644E7D1
S1131A702B000800203BD8400300202D00D17DE03E
S1131A804020451BA9400A43511E8A4100211A43A4
S1131A90C7E6002E50D01A4EB04257D080266B4273
S1131AA09946360434434B46382B00DDD6E01F2BD1
S1131AB000DD35E12026F51A2600AE40B2463E0090
S1131AC0DE40AC46350056462E436546AF407D1E8B
S1131AD0AF41DC403743D71BBA4292410C1B524200
S1131AE0A41A0600D846A3E6644667462C4300D0F1
S1131AF0A2E600250026002706E71E00C4E6C0462D
S1131B00FF070000FFFF7FFFFFFF0F801F2B63DC39
S1131B102020C31A080098409C4683465346100070
S1131B20D84003005846184363469A40531E9A41CE
S1131B3053460243D94003E726003E4306D0EB4315
S1131B409946002BC7D0944EB042ACD10C0017007C
S1131B500600D84698E6904B9A450BD08246E7E6B5
S1131B60002800D09EE01800104300D1E9E01C00DA
S1131B701700D846884E87E6002572E7002182E7E1
S1131B8023003B43002E00D0ABE0002B00D1E7E064
S1131B900B00134300D177E6BA18BA42BF41641868
S1131BA07F42E419230200D4F2E07C4B17001C406E
S1131BB0060069E620003843002ED1D100285BD10D
S1131BC01C00144300D1A8E01C001700D8465BE6B3
S1131BD006000024002797E650460B002038C34037
S1131BE099465346202B00D195E0402350461B1ABA
S1131BF099400A43511E8A414B4600211A439FE6ED
S1131C00002E30D126003E4367D0DB439A46002B9A
S1131C101CD0614EB04260D05346382B00DD96E0B4
S1131C201F2B00DD9FE02026F31A26009E409C46D1
S1131C30B34653463E00DE4033005E461E436346D1
S1131C409F407B1E9F415346DC403743BF18974259
S1131C50924164185242A418060078E627437C1E79
S1131C60A741002437E74C4EB04236D080265B4271
S1131C7036049A463443CFE71800104300D103E6F4
S1131C80B81A84466745AD41E01A6D42401B05020F
S1131C9000D42CE6D71BBA4292411C1B5242A41A10
S1131CA0D846F1E51800104300D163E7F808670748
S1131CB007438020E4080003044208D0DD080542FD
S1131CC005D1D208590711430F002C00D8467B0FC9
S1131CD0E4001C43FF00304ED6E50C00170006005C
S1131CE0D2E5002B38D00B00134300D142E7F808AB
S1131CF0670707438020E40800030442E7D0CB08C9
S1131D000342E4D1D208490711430F001C00DEE767
S1131D1000270024D5E500216BE700250027F3E523
S1131D204E462500203EF5404B462E00202B2DD05C
S1131D304025ED1AAC4027437C1EA74100243743BD
S1131D40C9E6802400252403134E0027DCE527433D
S1131D507C1EA741002479E70C0017000E4E93E582
S1131D600C00170090E556462300203EF3409946A8
S1131D705346202B0ED0402356469B1B9C402743A2
S1131D807C1EA7414B4600241F435FE70024D2E793
S1131D901700B2E50024F2E7FF070000FFFF7FFF12
S1131DA0F0B557464546DE464E46E0B50C03984628
S1131DB04E00230B87B0070092469B46760DCD0F4D
S1131DC0002E6BD06D4B9E4235D080245B46420F73
S1131DD02404DB0014431C43C3009946684BA34608
S1131DE09C46002300276644029343461C035A0082
S1131DF0DB0F5046240B520D984600D176E05F4B22
S1131E009A426DD08023410F1B040B435C49E400CC
S1131E108C461C43C300002062444146B618694006
S1131E20721C0191944607430F2F00D9B0E0554A24
S1131E30BF00D25997465B460343994600D087E0DA
S1131E4000239B46023308270293CEE742460192C1
S1131E50022867D0032800D10EE2012800D062E1F5
S1131E60002300240022994601990140CDB20021AB
S1131E7012030B0D120B1B051343434A2405134095
S1131E801C436400ED0764082C434846210007B056
S1131E903CBC90469946A246AB46F0BD03439946E6
S1131EA04FD05B46002B00D189E1584600F0C2FDBB
S1131EB003000B3B1C2B00DD7AE11D22D31A3A00F0
S1131EC001005C46DA4008398C4013008F402343FC
S1131ED09B46B94600232D4E0027361A029384E709
S1131EE0534623432AD10024022096E75346234332
S1131EF020D0002C00D157E1200000F09BFD03000E
S1131F000B3B1C2B00DD49E11D21CB1A514602007D
S1131F10D9405346083A944093400C431B4A121A42
S1131F2000207AE70125019B144C1D400023002268
S1131F3099469CE70024002201206EE753460320C3
S1131F406BE700239B4601330427002602934CE7EA
S1131F50032381460C27029347E7802200230025B0
S1131F6012039946054C82E75C464B4602986FE79C
S1131F705C464B46019502986AE7C046FF0700009D
S1131F8001FCFFFF1C2E0000FFFF0F800DFCFFFF74
S1131F904A464946170C1A0C1B041B0C080419006A
S1131FA0000C41431500884619007D43794303958D
S1131FB089462900150045434D44029545462D0C9C
S1131FC0AA46029D5544A94506D98A46802149025C
S1131FD08946CA4451460391290C04914146090497
S1131FE02D04090C88462900250C24044144240CA2
S1131FF00591210041438846210079438A4668437C
S1132000414650448146080C48446F43824503D9F5
S11320108021490289464F44010C894639004944CC
S1132020029141460F0404993F0C88460004C019EC
S113203080444146049159460F0C0904090C884612
S113204059438A4639005143894641464A435146D9
S1132050090C8B467B43D2185A44934203D98023FC
S11320605B029B46D94451460904090C8A46414601
S113207061437C43130C12044B445244A1468A46E8
S11320803C0041466C434D4351464D440F0C7D1971
S1132090A94503D98021490288464444049F0399F1
S11320A0B84641448B468345804141428846514667
S11320B008042F04000C3F1858460299101889464A
S11320C0904292414F44BA46524299469346C24482
S11320D0D144CB448F42BF41C245894199459B417C
S11320E0934592417F4249422D0C52420F435B4239
S11320F013437F19FF185B463C19DB0D059A6402F4
S11321001C43430213435D1EAB415A46C00D0343B7
S113211052021343E20156D501205A0803401343E7
S1132120E207134364085A48604400284DDD5A0707
S113213009D00F221A40042A05D01A1D9A429B4145
S11321405B42E4181300E20104D58020514AC00028
S113215014406044504A904200DDE3E60125DB0868
S113216062071A436402019B9146220B4405640DE5
S11321701D407CE6802259461203114208D01442C5
S113218006D122431203120B45469946434C6EE690
S11321905B461A431203120B404C68E60300544694
S11321A0283B9C400023B9E600F044FC2030A6E61E
S11321B00300283B9F400023BB4699468AE600F073
S11321C039FC203074E6B446ADE701252A1A382AD2
S11321D006DD019B00241D4000230022994646E6AB
S11321E01F2A21DC20252000AD1A1E00AB40A84088
S11321F0D6405D1EAB4130431843D440430709D059
S11322000F230340042B05D00300181D98429B4163
S11322105B42E418230221D50125019B01241D40C2
S113222000230022994622E61F2521006D42281A28
S1132230C1400800202A1DD05F35AA1A94402343C8
S11322405C1EA341072503431D400022002D09D035
S11322500F2200241A401800042AD6D1030065076F
S11322606402220BDB082B4301259946019B0024C1
S11322701D40FCE50024E2E78022012512032243ED
S113228001991203120B0D409946044CEFE5C04628
S1132290FF030000FFFFFFFEFE070000FF07000032
S11322A0F0B54646D6464F460C03C0B5CD0F4E009A
S11322B0610A440F0C43C1005800400D84468A460D
S11322C00F001903500F490A0143C648760DA8466A
S11322D0DB0FD200844500D1D8E001204340AB425B
S11322E000D1A6E06046351A002D00DC05E1002887
S11322F010D10B00134300D1D7E06B1E002B00D08C
S11323004BE153469F1ABA458041641A4042241A4D
S113231001261EE0B34B9E4248D080231B04194380
S1132320382D00DD19E11F2D00DD4CE120230F00C5
S11323305B1B10009A409F40E840531E9A41E940BD
S1132340074317435346DF1B611ABA45A44164424D
S11323500C1B230200D4C5E06402650A002D00D1E1
S1132360F6E0280000F066FB0300083B1F2B00DDAD
S1132370E9E020223C00D21A9D40D4409F402543EE
S11323809E4200DDDBE09E1B731C1F2B00DD0AE177
S113239020223800D21A290097402C009140D840BE
S11323A07A1E9741DC40002601430F437B0709D086
S11323B00F233B40042B05D03B1DBB42BF417F4252
S11323C0E4191F00230225D5864B01369E4200D115
S11323D0AFE0854B01251C4043466207FF086402B9
S11323E076051743240B760D1D4000212403230B8F
S11323F00C0D7E4A24051C431440330523435B0023
S1132400ED075B082B43380019001CBC9046994625
S1132410A246F0BD012543466207FF081743E408BE
S11324201D40704B9E4236D024037605240B760D56
S1132430DBE76346F31A002B00DC94E060460028D7
S113244035D068488642B1D080273F043943382BC1
S113245000DCFDE00A43170000217A1E974157442F
S113246057458041091944420C1923023AD55D4B62
S113247001369E4200D14BE101225B4B1C407B089C
S113248017401F43E207174364088FE7080010430F
S113249000D024E721E723003B4300D1B9E18022A7
S11324A0120314432403240B9FE72E007EE7080045
S11324B0104300D1CAE0581E8446002800D0E7E04B
S11324C052445245804164184042241817000126A2
S11324D0230207D50226CFE764462C4300D1B3E19B
S11324E02C0067467B0700D062E76307FF081F43A1
S11324F001254346E4081D4093E7002D78D1751C5F
S11325006D056D0D012D00DCF2E05046801A824508
S1132510BF41651A7F42ED1B8446280200D48CE03B
S11325205046171ABA4292410C1B5542651B9846F5
S113253014E70125434600241D40002755E72A4C93
S1132540F61A2C4032E73D0028388540002717E76B
S1132550380000F06FFA203006E70A431700002124
S11325607A1E9741EEE6002B00D0E5E0731C9C46F2
S11325705B055B0D012B00DC9FE01A4B9C4500D1F1
S1132580C5E0524452458041641840422418E7078C
S1132590520817436408664608E71248854200D18A
S11325A085E01D00BCE629001F3EF140202B00D130
S11325B07FE04022D31A9D402F437D1EAF4100246B
S11325C00F4300268EE72B000F00203BDF40202D19
S11325D071D040235D1BA9400A43511E8A4100214A
S11325E01743AFE6FF070000FFFF7FFFFFFF0F80E9
S11325F0002E3ED0B34EB44545D0802636046D42FD
S11326003443382D00DDA8E01F2D00DD1FE1202616
S113261027005046761BB740E84007435046B04079
S1132620461EB041EC403843171ABA4292410C1B83
S11326305242A41A664698468BE6644667462C4383
S113264000D08BE6002500260027EAE61E00ADE652
S11326501F2B60DC2027F81A0F00844687401000E7
S1132660D840074360468240501E8241D9401743F8
S1132670F5E626005046064305D0ED43002DD3D0A1
S1132680904EB445BDD10C001700664698468DE6C1
S11326908C4883420BD06346D9E6002D00D096E0E7
S11326A00800104300D1E2E00C0017009846854E64
S11326B07CE6002580E700218EE723005046034393
S11326C0002E00D0A8E0002B00D1DEE00B00134365
S11326D000D16BE6524452458041641840422418AC
S11326E01700230200D4FDE6774B66461C405DE6E6
S11326F0250050460543002ECFD1002D4FD10C00AC
S1132700144300D1A0E00C00170098464EE666463C
S11327100024002785E61F000800203FF84007003A
S1132720202B00D18EE04020C31A99400A43511E49
S11327308A410021174392E6002E14D12600504608
S1132740064362D0DB43002B5CD187189742924149
S113275064185242A418664687E650462043441E35
S1132760A041002460E7574EB4454ED0802636047D
S11327705B423443382B00DD7FE01F2B00DD8BE010
S1132780202627005046F61AB740D8400743504643
S1132790B040461EB0410743DC40BF18D6E70D00E9
S11327A0154300D102E65046801A8245BF41651A9E
S11327B07F42ED1B8446280200D48DE65046171A4A
S11327C0BA4292410C1B5242A41A9846EEE50D00FF
S11327D0154300D16BE750466707C00807438020C4
S11327E0E4080003044207D0CD08054204D12C00BC
S11327F09846D70849070F437B0FE4001C43FF00AA
S1132800304ED3E52F4EB445B4D10C0017006646C4
S1132810CCE500270024E8E5002B39D00B00134356
S113282000D144E7C008670707438020E408000399
S11328300442E1D0CB080342DED1D70849070F4355
S11328401C00D9E7002171E700250027E9E52E00E7
S11328502700203EF740202D2FD04026751BAC408A
S113286050462043441EA04100243843DCE6802423
S113287000252403134E0027D3E5504620430700C8
S1132880781E87410024BF1860E70C0017008DE50F
S11328900C0017000B4E89E51E002700203EF74070
S11328A0202B0CD04026F31A9C4050462043441E53
S11328B0A04107430024BF1848E70024D0E70024C0
S11328C0F3E7C046FF070000FFFF7FFF30B5134D5D
S11328D00A034B00120B5B0DC90F0024AB4210DD41
S11328E00F4CA3420FDC80240E4D64032243ED1AE7
S11328F01F2D0BDD0C48C31ADA405442002900D1C5
S11329001400200030BD094BCC18FAE7084CE8400D
S1132910A44663449A400243EFE7C046FE03000026
S11329201D0400003304000013040000FFFFFF7FB8
S1132930EDFBFFFF70B5002830D0C317C4185C400E
S1132940C50F200000F076F8174B184A1B1AD21A4C
S11329501F2A18DD164AD21A9440002224035B056C
S1132960240B5B0D0021100024030A0D240B120517
S11329702243104C1B05224013435B00ED075B0808
S11329802B43190070BD210091400A000B21081A45
S1132990C4405B052403240B5B0DE3E700250023FF
S11329A000240022DEE7C0461E04000033040000B9
S11329B013040000FFFF0F808446101C62468C46FF
S11329C0191C634600E0C0461FB500F0EFF800286C
S11329D001D40021C8421FBD10B500F049F840429F
S11329E0013010BD10B500F0E1F8002801DB002033
S11329F010BD012010BDC04610B500F0D7F8002866
S1132A0001DD002010BD012010BDC04610B500F04E
S1132A1069F8002801DC002010BD012010BDC0466B
S1132A2010B500F05FF8002801DA002010BD012085
S1132A3010BDC0461C2101231B04984201D3000C85
S1132A4010391B0A984201D3000A08391B0998421D
S1132A5001D30009043902A2105C40187047C04633
S1132A600403020201010101000000000000000053
S1132A70F0B54F464646D6465C00C0B51F03DB0F93
S1132A809A46174B0E034D0084468046360B6D0D57
S1132A90C90F91463F0B640D01209D4208D09C4212
S1132AA001D0A5420BD01CBC90469946A246F0BD6D
S1132AB063463343F7D1AC42F5D13A43F3D1012015
S1132AC0BE42F0D1C845EED1514507D0002DEAD120
S1132AD063461E433000461EB041E4E70020E2E7AF
S1132AE0FF070000F0B54546DE4657464E46E0B5C2
S1132AF01F033D0B2C4F0E034C00AB465D00844678
S1132B00360B640DC90F90466D0DDB0FBC422AD005
S1132B10254FBD422DD0002C0FD1304307008146F4
S1132B2078427841C0B2002D17D15F463A4314D1A0
S1132B304B460020002B0AD006E0002D02D1584657
S1132B40024301D0994218D04842012108433CBCB9
S1132B5090469946A246AB46F0BD0028F2D001202B
S1132B60013B1843F3E737000743D1D0022040422A
S1132B70EDE75F461743CED0F8E7AC42E4DC03DA76
S1132B80481E01210843E2E75E45DDD806D0002057
S1132B905E45DCD20123481E1843D8E7C445D3D888
S1132BA00020C445F6D3D2E7FF070000F0B54E4637
S1132BB04546DE4657465C00E0B51F03DB0F9946E9
S1132BC02A4B0E034D00C90F8446360B6D0D8B4600
S1132BD090463F0B640D9D4220D0244B9C4222D052
S1132BE0002D12D1304343424341DBB2002C1FD0AD
S1132BF0002B0CD04B460120013B034318003CBC86
S1132C0090469946A246AB46F0BD002C16D0CB4563
S1132C1017D05B46594201230B43EFE731000223EF
S1132C200143EBD1D9E7390002231143E6D1D7E7B9
S1132C303A43DDD100230028E0D0EAE73A43E6D165
S1132C40E7E7A542E5DC05DBBE42E2D807D0002376
S1132C50BE42D3D25946012301390B43CEE7C445C2
S1132C60D7D80023C445F5D3C8E7C046FF07000002
S1132C7070B500260C4D0D4C641BA410A64209D15E
S1132C80002600F0EBF80A4D0A4C641BA410A6427F
S1132C9005D170BDB300EB5898470136EEE7B30099
S1132CA0EB5898470136F2E7682E0000682E0000C2
S1132CB0682E00006C2E00002E2E2F68616C2F737E
S1132CC072632F68616C5F6164635F6173796E63C3
S1132CD02E6300002E2E2F68616C2F7372632F6891
S1132CE0616C5F6461635F6173796E632E6300007E
S1132CF02E2E2F68616C2F7372632F68616C5F696D
S1132D006F2E63002E2E2F68616C2F7372632F68F1
S1132D10616C5F74696D65722E6300002E2E2F68DE
S1132D20616C2F7372632F68616C5F757361727469
S1132D305F73796E632E63002E2E2F68616C2F757E
S1132D4074696C732F7372632F7574696C735F6C21
S1132D506973742E630000002E2E2F68616C2F752A
S1132D6074696C732F7372632F7574696C735F72FB
S1132D70696E676275666665722E63000002030001
S1132D8000003000000000000018000F00000000E8
S1132D9000000000000000002E2E2F68706C2F61D0
S1132DA064632F68706C5F6164632E6300000000CD
S1132DB02E2E2F68706C2F6461632F68706C5F64B3
S1132DC061632E63000000002E2E2F68706C2F7339
S1132DD06572636F6D2F68706C5F736572636F6D7E
S1132DE02E630000010068030000000000000000E2
S1132DF07D000000000000002E2E2F68706C2F74E0
S1132E00632F68706C5F74632E63000048656C6C9C
S1132E106F20576F726C642100000000901F000047
S1132E20501E0000501E00004C1E0000681F0000D1
S1132E30681F00005A1F00004C1E0000681F00009D
S1132E405A1F0000681F00004C1E0000701F000085
S1132E50701F0000701F000074210000F8B5C04608
S1132E60F8BC08BC9E467047B5000000F8B5C046E3
S10F2E70F8BC08BC9E4670478D000000B2
S903014EAD
